:020000040800F2
:10000000FFFF0020D16F0008FF0100080102000877
:1000100003020008050200080702000800000000B3
:1000200000000000000000000000000009020008BD
:100030000B020008000000000D0200080F0200087B
:10004000217000082170000821700008217000084C
:1000500021700008217000081302000821700008B8
:10006000217000082170000821700008217000082C
:10007000217000082170000821700008217000081C
:1000800021700008217000082170000800000000A5
:1000900000000000000000000000000021700008C7
:1000A00021700008217000082170000821700008EC
:1000B00021700008217000082170000821700008DC
:1000C00021700008217000082170000821700008CC
:1000D0002170000821700008217000080000000055
:1000E0002170000821700008217000080000000045
:1000F0000000000000000000000000002170000867
:100100000000000021700008217000082170000824
:1001100000000000000000000000000000000000DF
:10012000217000082170000821700008217000086B
:100130002170000800000000000000000000000026
:100140000000000000000000000000002170000816
:10015000217000082170000821700008217000083B
:10016000217000082170000800000000000000005D
:10017000000000000000000000000000000000007F
:1001800000000000217000080000000000000000D6
:0401900021700008D2
:10019400134B002B08BF114B9D46A3F5803A002159
:1001A4008B460F461148124A121A06F075FD0D4B84
:1001B400002B00D098470C4B002B00D09847002010
:1001C400002104000D000B4806F012FD06F03CFD72
:1001D4002000290006F076FE06F010FD000008005D
:1001E400000000000000000000000000680400207F
:1001F4003C050020216C0008FEE77047FEE7FEE79F
:10020400FEE7FEE770477047704700F05BBD0120D2
:1002140000F04CBF0F49D1F8883043F47003C1F8A3
:1002240088300D4B1A68002042F001021A60986071
:100234001A6822F0847222F480321A60074A5A60E3
:100244001A6822F480221A60D8604FF000638B6031
:10025400704700BF00ED00E0003802401030002479
:10026400174A1849936803F00C03042B03D0082B96
:1002740003D0154B18E0154B16E05068536810F482
:10028400800F03F03F03506814BF104A0E4AB2FBBC
:10029400F3F30B4A5268C2F30142C0F388100132EF
:1002A40043435200B3FBF2F30B60054B9B68C3F36B
:1002B40003130B441A790B68D3400B60704700BFDB
:1002C40000380240000000200024F40000127A00EC
:1002D40010B51F4C88B0204602F042F8002835D1F2
:1002E4001C4B23601023E3610723E3624FF4007384
:1002F400A3614FF482736360174BA0606061206157
:10030400A062E060206260625A6C144842F4805239
:100314005A645A6C02F480520192019A1A6B42F0A8
:1003240001021A631B6B03F001030293029BE02397
:1003340003930223049305930123069303A905233E
:10034400079300F047FD204601F022F808B010BDE5
:1003540068040020003001400038024000000240E0
:100364007FB500238DF817300B4B8DF80F001B68F9
:1003740000930A480DF10F010DF11702012301F05A
:1003840009F920B1054801F041F8FFF7A1FF9DF8F4
:10039400170007B05DF804FB140000206804002077
:1003A40070B52B4C88B004F1580005F0C7FC054625
:1003B40000284AD1274BA36543236366264B274E67
:1003C400E3654FF480432066E06620676067A067BA
:1003D400A366336C43F400133364336C03F40013E7
:1003E4000193019B336B43F002033363336B05903A
:1003F40003F002030293029B19484FF41073039312
:10040400122304930223069303A90423079300F001
:10041400E1FC336A43F400133362336A23F40013B8
:10042400336229462A461F2001F0B2FF1F2001F043
:10043400DFFF202029462A4601F0AAFF202001F0F0
:10044400D7FF04F1580004F03EF908B070BD00BFB6
:100454006804002000540040A086010000380240D7
:100464000004024010B586B006AB002203F8012D4B
:100474000A460093094901230193044649680291FD
:100484000748214604F0AEFE20B1054804F087F980
:10049400FFF786FF9DF8170006B010BD140000207A
:1004A400C004002010B586B006AB044603F8012D45
:1004B4000A460093084909480123019349680291B7
:1004C400214604F019FE20B1044804F068F9FFF74E
:1004D40067FF06B010BD00BF14000020C004002058
:1004E400004870470003010230B58BB050B9244B6B
:1004F4001A6B42F008021A631B6B03F008030193A2
:10050400019B25E001280AD11D4B1A6B42F0080219
:100514001A631B6B03F008030293029B18E0022882
:100524000AD1174B1A6B42F008021A631B6B03F0D3
:1005340008030393039B0BE0032809D1104B1A6BA8
:1005440042F008021A631B6B03F008030493049B34
:100554000C4C0D4B04EB800433F81050A068059547
:1005640001230693079305A90223089300F032FCA4
:10057400A0682946002200F07BFD0BB030BD00BF0F
:10058400003802401400002044700008054B03EBBF
:10059400800302469868044B33F81210012200F0DD
:1005A40067BD00BF1400002044700008054B03EB36
:1005B400800302469868044B33F81210002200F0BE
:1005C40057BD00BF1400002044700008044B03EB27
:1005D400800302469868034B33F8121000F04CBDB8
:1005E400140000204470000810B586B048B9184BB8
:1005F4001A6B42F001021A631B6B03F001030093B0
:10060400009B69B901230193022303930493114BC3
:10061400029103EB800001A9806900F0DBFB15E087
:10062400012913D10C4B02930A4B019103EB800077
:1006340000248069039401A900F0CCFB06200F215B
:10064400224601F0A5FE062001F0D2FE06B010BD40
:1006540000380240140000200000111008B5044BBB
:1006640003EB80000121806900F0FCFC08BD00BFA1
:10067400140000202DE9F0411A4C1B4D236B43F06C
:1006840010032363236B88B003F0100301270026B3
:1006940001934FF00808284603A9019BCDF80C806C
:1006A40004970596069700F095FB3A46284641467E
:1006B40000F0DEFC236B43F010032363236B0496EA
:1006C40003F010030293029B059603230393284629
:1006D400022303A9069300F07DFBFFF7F9FD08B0A0
:1006E400BDE8F0810038024000100240012A70B5D4
:1006F4000D46064688BF41F040050C4814460821C3
:10070400002200F0B5FC2846FFF72AFE34B116F8A3
:10071400010B013CFFF724FEA4B2F7E703480821CC
:100724000122BDE8704000F0A3BC00BF00100240ED
:10073400012A70B58CBF41F0C00541F08005064622
:1007440014460C480821002200F092FC2846FFF7CA
:1007540007FE3CB10020FFF703FE013C06F8010B45
:10076400A4B2F6E7034808210122BDE8704000F076
:100774007FBC00BF00100240164BF0B51A6B164D3B
:1007840042F008021A631B6B87B003F0080300935E
:100794001024284601A9009B019402230126002766
:1007A40004930296039700F015FBFFF7F9FD214629
:1007B4003A46284600F05CFC052000F091FA2846F1
:1007C4002146324600F054FC052000F089FA07B0B7
:1007D400F0BD00BF00380240000C024062E641E672
:1007E4007FB50D4B0D481A6B42F010021A631B6B58
:1007F40003F010030093009B04230193002302934E
:10080400039301A90223049300F0E4FAFFF7C8FD5F
:1008140007B05DF804FB00BF00380240001002403E
:10082400104B11481A6B10B542F010021A631B6B7F
:1008340086B003F010030093009B302301930B4B0D
:1008440002930024022301A90493039400F0C2FA42
:10085400214622460A2001F09BFD0A2001F0C8FD32
:1008640006B010BD00380240001002400000111014
:1008740018E6F7E5074B1A6922F440721A611A69FF
:1008840042F400721A611A6942F001021A610160AD
:10089400704700BF003C0240074B1A6922F44072C3
:1008A4001A611A6942F480721A611A6942F00102EB
:1008B4001A610180704700BF003C0240194BDA689E
:1008C400D20641BF1849CA6942F01002CA61DB6806
:1008D4009B0641BF144AD36943F00803D361114B0B
:1008E400DA68500641BF1049CA6942F00402CA617D
:1008F400DB68190641BF0C4AD36943F00203D36194
:10090400084BDA68D20541BF0749CA6942F00102BF
:10091400CA61DB689B0741BF034AD36943F02003E4
:10092400D3617047003C02401C050020F8B5164610
:10093400214A1F46137E012B0446084639D0012361
:1009440013761E4B196941F080711961196941F0E0
:1009540000711961F321D96003211170506164B9E8
:100964001D6925F440751D611A691A611D69F6B285
:1009740045F001051D6106700AE0012C03D1B1B2F6
:10098400FFF78AFF04E0022C04D13146FFF772FF1F
:100994000020F8BD1A6922F440721A611A6942F4FF
:1009A40040721A611A6942F001021A61C0E90067D3
:1009B400EEE70220F8BD00BF1C050020003C024009
:1009C4007047704770B5374D374C2B6923F00103DE
:1009D4002B612B6923F002032B612B6923F0F803AD
:1009E4002B612B6923F004032B61EB6813F0010FD7
:1009F40029D02678F6B2012E19D16368013B6360D1
:100A0400636863B1E068FFF7DBFFF323EB60E3683F
:100A14000133E360E068217A05F05CFA13E04FF0FB
:100A2400FF30E0602370FFF7CBFFEE600BE023782C
:100A3400022B0CBF20696069FFF7C2FF00232370FB
:100A4400184B0122DA60174BDB6813F4F97F18D0D6
:100A54002278154B012A04D14FF0FF32DD68DA60A9
:100A640004E01A78022A0CBF1D695D69FFF726FFAE
:100A74002846FFF7A6FF0B4B4FF4F972DA60002308
:100A84002370237803F0FF0153B9064B1A6922F04F
:100A940080721A611A6922F000721A61024B197687
:100AA40070BD00BF003C02401C050020064B1A69C3
:100AB400002ABFBF054A5A6002F188320020B4BF41
:100AC4005A600120704700BF003C02402301674583
:100AD400034A136943F0004313610020704700BFC9
:100AE400003C0240064B5A69D20741BF054A9A604E
:100AF40002F1443200204CBF9A600120704700BFCD
:100B0400003C02403B2A1908034A536943F001039D
:100B140053610020704700BF003C0240014BD8697C
:100B2400704700BF1C0500200F4B70B5002204461F
:100B3400DA6100F0CFF80D4D0646EB68DB030AD509
:100B4400621CFAD00CB9032070BD00F0C3F8801BFE
:100B5400A042F2D9F7E7054BD86810F4F97002D037
:100B6400FFF7ACFE012070BD1C050020003C0240D4
:100B74002DE9F041274E1D46337E012B80460F465A
:100B8400144643D001234CF250303376FFF7CCFFA8
:100B9400002837D1204BB8F1000F0CD1186920F48C
:100BA400407018611A691A611869E4B240F00100D2
:100BB40018613C701DE0B8F1010F04D13846A1B2B0
:100BC400FFF76AFE15E0B8F1020F04D1384621465A
:100BD400FFF750FE0DE01A6922F440721A611A6997
:100BE40042F440721A611A6942F001021A61C7E9BB
:100BF40000454CF25030FFF797FF07490A6922F08D
:100C040001020A6100223276BDE8F0810220BDE8CB
:100C1400F08100BF1C050020003C0240044A137808
:100C240043F0020313704CF25030FFF77DBF00BF56
:100C3400143C0240704770477047704770477047D4
:100C440010B5094B4FF0FF3200241A621C625A623D
:100C54005C621A611C615A615C619A619C61FFF774
:100C6400EAFF204610BD00BF0038024010B504461C
:100C740005F0A2FD4FF47A73B0FBF3F001F0E0FB52
:100C84004FF0FF302146002201F082FB002010BD0E
:100C940008B50B4B1A6842F400721A601A6842F4E1
:100CA40080621A601A6842F480721A60032001F0AC
:100CB4005DFB0F20FFF7DAFFFFF7BCFF002008BD44
:100CC400003C0240024A136801331360704700BFBE
:100CD400FC040020014B1868704700BFFC0400208E
:100CE40013B50190FFF7F6FF0446FFF7F3FF019BEE
:100CF400001B9842F9D302B010BD034A136823F0D5
:100D040002031360704700BF10E000E0024A13685A
:100D140043F002031360704710E000E0004870479E
:100D240000000301014B1868000C7047002004E028
:100D3400024B1868C0F30B00704700BF002004E0AA
:100D4400024A536843F0010353607047002004E0F3
:100D5400024A536823F0010353607047002004E003
:100D6400024A536843F0020353607047002004E0D2
:100D7400024A536823F0020353607047002004E0E2
:100D8400024A536843F0040353607047002004E0B0
:100D9400024A536823F0040353607047002004E0C0
:100DA400012292FAA2F3B3FA83F30249DBB241F8C7
:100DB4002320704700042742012393FAA3F3B3FAD4
:100DC40083F3034ADBB2002142F82310704700BFCB
:100DD400000427422DE9F04F634E0B68DFF890C101
:100DE40085B04FF001080193B6460023019C08FA30
:100DF40003F21440944240F0B0804A6822F0100A92
:100E0400BAF1020F14D14FEAD30900EB890903F0B8
:100E1400070BD9F820504FEA8B0B0F2707FA0BF773
:100E240025EA07070D6905FA0BF53D43C9F820507B
:100E34004FEA43090325076805FA09F5ED4305EA76
:100E4400070B02F0030707FA09F70AF1FF3A4BEA26
:100E54000707BAF1010F076011D8876805EA070A86
:100E6400CF6807FA09F74AEA07078760476827EA5D
:100E7400040AC2F300179F404AEA07074760C7689D
:100E84003D408F6807FA09F73D43C560D50064D536
:100E9400DCF8445045F48045CCF84450DCF8445028
:100EA40023F0030707F1804705F4804507F59C37D5
:100EB400039503F00309039DD7F808A04FEA8909B5
:100EC4000F2505FA09F52AEA050B284DA84214D086
:100ED40005F58065A84213D005F58065A84212D0B7
:100EE40005F58065A84211D005F58065A8420CBFC0
:100EF4004FF0040A4FF0050A0AE04FF0000A07E039
:100F04004FF0010A04E04FF0020A01E04FF0030A37
:100F14000AFA09FA4AEA0B05BD603568E74312F498
:100F2400803F0CBF3D402543CEF80050DEF804500E
:100F340012F4003F0CBF3D4025437560B56812F4C0
:100F4400801F0CBF3D402543CEF80850DEF80C50FE
:100F5400920254BF3D402543F5600133102B7FF4CA
:100F640045AF05B0BDE8F08F003C014000000240F1
:100F7400003802402DE9F04F374ADFF8E4B000238F
:100F84004FF001094FF0030A4FF00F0C09FA03F573
:100F940005EA0104AC4259D15D0006680AFA05F578
:100FA400ED432E400660DE0800EB860603F0070ED4
:100FB400376A4FEA8E0E0CFA0EFE27EA0E073762E6
:100FC40086682E4086604668E44326404660C668CC
:100FD4003540C56023F0030505F1804505F59C35D2
:100FE40003F00307AE68BF000CFA07F808EA060E20
:100FF4001A4EB04210D006F58066B0420ED006F507
:101004008066B0420CD006F58066B0420AD05845DE
:101014000CBF0426052606E0002604E0012602E0B3
:10102400022600E00326BE40B6450FD1AE6826EA8C
:101034000806AE6015682540156055682540556062
:10104400956825409560D5682C40D4600133102BF9
:101054009CD1BDE8F08F00BF003C0140000002407D
:10106400001002400369194214BF01200020704798
:1010740002B909048161704743695940416170476D
:1010840082B04FF480330193019B0B430193019B86
:10109400C361C161019BC361C3690193C06980F4E9
:1010A4008030C0F3004002B07047704708B5044B6D
:1010B4005969084202D05861FFF79EF808BD00BF85
:1010C400003C014003682DE9F341DD07044617D4D1
:1010D400236813F0020300F08D80484B484D1A6CCE
:1010E40042F080521A641B6C03F080530193019BFD
:1010F4002B6843F480732B60FFF7ECFD06463AE05F
:10110400404E3E4F00233360FFF7E4FD80463B68CA
:101114003A4D180107D5FFF7DDFDC8EB0000642840
:10112400F5D9032067E047F6C07393FAA3F3B3FA43
:1011340083F34FF0E04292FAA2F2B2FA82F2A1688B
:10114400D2B291406268DBB29A400A430123C5F8E7
:1011540084203360FFF7BEFD06462B681901B7D41F
:10116400FFF7B8FD801B6428F7D9DAE7FFF7B2FD73
:10117400801B6428D5D82B68DA05F7D51F4BE268A5
:10118400196F4A4012F4407F08D01A6F1E4901209B
:10119400086022F44072002008601A67E368B3F51F
:1011A400807F0FD0E26802F44073B3F5407F134BA5
:1011B40017D1996822F0704020F4407021F4F8119E
:1011C400014311E0FFF786FD0C4D064641F28837D6
:1011D4002B6F9B07E6D4FFF77DFD801BB842F7D940
:1011E4009FE7996821F4F8119960196FC2F30B0213
:1011F4000A431A67002002B0BDE8F08100380240BB
:101204000070004068004742400E474203231349E0
:10121400036010B547F6C073D1F8844093FAA3F283
:10122400B2FA82F22340D2B2D3404360D1F8842090
:101234004FF0E04393FAA3F3B3FA83F302F0E042EE
:10124400DBB222FA03F383608B680A6F03F4F813AA
:1012540002F440721343C36010BD00BF0038024063
:101264002DE9F04104460E4690461D46FFF732FD37
:101274000746B8F1000F3AD1226893683340B3426D
:101284000ED0691CF9D07DB1FFF724FDC01BA84224
:10129400F2D909E06B1C06D193683340B342F9D00C
:1012A4000020BDE8F081EDB923685A6822F0E0021D
:1012B4005A601A6822F040021A60A26AB2F5005F0E
:1012C40007D11A6822F400521A601A6842F40052D4
:1012D4001A60012384F85130002384F8503003202D
:1012E400BDE8F081FFF7F6FCC01BA842DCD82268F9
:1012F400D2E7836AB3F5005F13B5044622D1012116
:101304000A460A23FFF7ACFF024648B920460121EA
:101314000A23FFF7A5FF18B1636D43F0100363655B
:101324002368DA6892B2ADF80620BDF806209A6800
:10133400D20641BF626D42F0020262656FF0100294
:1013440048BF9A602046022100220A23FFF788FF43
:1013540018B1636D43F0100363652268536823F08A
:10136400020353602046802101220A23FFF778FFFD
:1013740018B1636D43F0100363652268536823F06A
:10138400010353600023E386E38702B010BD704776
:1013940010B50446002836D090F8513003F0FF020F
:1013A4001BB980F85020FFF7F2FF6168A06808437A
:1013B400E1680843216902230843616984F85130D4
:1013C40023680843E1691A680843216A22F040024D
:1013D4001A600843A269A16A084302F40071014338
:1013E4001960120C616A02F004020A435A60E26A4C
:1013F4001A61DA6922F40062DA610020012360656F
:1014040084F8513010BD012010BD704710B504465A
:1014140070B10268136823F040031360FFF7F5FF0F
:101424000023636584F8503084F85130184610BDA9
:10143400012010BD73B5044690F85100C0B20128D4
:101444001D4640F0A480002900F0A280002A00F08C
:101454009F8094F85030012B00F09980122384F877
:10146400513000236365E364A364A387E387A36A1D
:1014740084F8500020682163B3F5005F08BF036857
:10148400A28608BF23F40053E28604BF0360036806
:10149400E66804BF43F400530360A368B3F5004F48
:1014A40002BF036843F48043036003685B065EBFC6
:1014B400036843F0400303606368F6B90BB1012A83
:1014C40017D14B1C23630B78C360013AE28610E00A
:1014D4002046022100222B46FFF7C2FE00283DD100
:1014E400236B2268591C21631B78D360E38E013B74
:1014F400E386E38E002BEBD11CE00BB1012A16D15D
:1015040031F8023BC360013A2163E2860FE02046D2
:10151400022100222B46FFF7A3FEF8B9236B2268B1
:1015240033F8021BD1602363E38E013BE386E38E31
:10153400002BECD1A36AB3F5005F01BF22681368E6
:1015440043F4805313602046022100222B46FFF708
:1015540087FE28B1636D43F010036365032017E031
:101564002046802101222B46FFF77AFE0028F1D184
:10157400A3682BB92368DA6801929B680193019BE5
:10158400012384F85130002384F8503000E0022015
:1015940002B070BD73B50446184694F85130069DE8
:1015A400DBB2012B02D0222B40F03E81002900F057
:1015B4003981002A00F03681002800F0338194F844
:1015C4005030012B00F03081012384F8503094F81E
:1015D4005130A66AA263012B04BF322384F8513030
:1015E4002268A08700236365B6F5005FA364E36403
:1015F40008BF1368E08708BF23F400532163A08663
:10160400E08601BF1360136843F40053136013684A
:101614005B065EBF136843F040031360E368B3F5F1
:10162400006F63685CD123B1B3F5827F07D10128D1
:1016340005D131F8023BD36001382163E086E38EA3
:10164400002B38D1B6F5005F02BF136843F4805312
:10165400136020460121002235E0204602210022A9
:101664002B46FFF7FDFD002840F0BB80236B22686A
:1016740033F8021BD1602363E38E013B9BB2E38604
:101684003BB9A36AB3F5005F02BF136843F4805308
:1016940013602046012100222B46FFF7E1FD0028BC
:1016A40040F09F802368DA68A36B23F8022BA363BE
:1016B400E38F013BE387E38E002BCED16268002ADF
:1016C4006ED1204601212B46FFF7CAFD002840F0C9
:1016D40088802368DA68A36B23F8022BA3635CE099
:1016E40023B1B3F5827F07D1012805D14B1C2363B5
:1016F4000B78D3600138E086E38E002B3CD1B6F53D
:10170400005F02BF136843F4805313602046012135
:1017140000222B46FFF7A4FD002862D1A36B39E019
:101724002046022100222B46FFF79AFD002858D1BB
:10173400236B2268591C21631B78D360E38E013B21
:101744009BB2E3863BB9A36AB3F5005F02BF13689B
:1017540043F4805313602046012100222B46FFF7F7
:101764007FFD00283DD1A36B5A1CA2632268D26876
:101774001A70E38F013BE387E38E002BD0D16268BC
:1017840072B9204601212B46FFF76AFD48BBA36BC3
:101794005A1CA2632268D2681A70E38F013BE38764
:1017A400A36AB3F5005F11D12046012100222B4624
:1017B400FFF756FD18B1636D43F0020310E0236890
:1017C400DB689BB2ADF80630BDF8063020468021B8
:1017D40001222B46FFF744FD28B1636D43F010034B
:1017E4006365032021E0A56A2368012184F8511070
:1017F400B5F5005F9A6811D1D2060FD5626D42F03B
:10180400020262651A6822F400521A601A6842F4ED
:1018140000521A6084F85000084606E0002384F859
:10182400503002E0012000E0022002B070BDF0B5AB
:1018340090F85150EDB2012D85B0044617461E466E
:1018440040F0D980002900F0D780002A00F0D4802D
:1018540090F85030012B00F0CE80222380F85130D4
:1018640080F85050A287E287A268A1630020B2F5F5
:10187400004F6065A064E064A086E08601BF206834
:10188400036823F480430360A36AB3F5005F08D1BF
:101894002368186820F400501860186840F4005059
:1018A40018606368B3F5827F0AD14AB984F850207E
:1018B400009620460A463B46FFF76CFE05469BE031
:1018C40023681A6851065EBF1A6842F040021A6023
:1018D400E3682BBBE38F012B25D92046012100228D
:1018E4003346FFF7BDFC00284DD1A36B5A1CA263FD
:1018F4002268D2681A70E38F013BE387EAE7204647
:10190400012100223346FFF7ABFC00283BD12368BA
:10191400DA68A36B23F8022BA363E38F013BE3870D
:10192400E38F012BEBD8A36AB3F5005F01BF2268F4
:10193400136843F480531360204601210022334688
:10194400FFF78EFC0546F0B9E1682368A26B21B964
:10195400511CDB68A163137003E0DB6822F8023BCF
:10196400A263E38F013BE387A36AB3F5005F13D15E
:101974002046012100223346FFF772FC28B1636D33
:1019840043F002036365032536E02368DB689BB2FA
:10199400ADF80E30BDF80E306368B3F5827F23686E
:1019A4000AD1A268B2F5004F02D0B2F5806F03D11C
:1019B4001A6822F040021A60A06A012184F85110CA
:1019C400B0F5005F9A6812D1D20610D5626D42F06C
:1019D400020262651A6822F400521A601A6842F41C
:1019E40000521A60002384F850300D4604E00023AE
:1019F40084F8503000E00225284605B0F0BD90F888
:101A0400513010B50446D8B2012842D1002943D040
:101A1400002A41D094F85030012B3AD0216312238C
:101A2400A16884F85130A2860023E28622686365A7
:101A3400B1F5004FA364A387E38708BF136884F854
:101A4400500008BF43F480431448E06408BF1360A7
:101A5400A36AB3F5005F01BF136823F40053136056
:101A6400136804BF43F400531360536811B943F07F
:101A7400800301E043F0A00353601068002310F0DA
:101A8400400084F8503006D1136843F040031360DB
:101A940010BD022010BD184610BD00BF491F00082C
:101AA40030B590F85140E4B2012C08D04568B5F542
:101AB400827F46D18568002D43D1222C41D1002953
:101AC4003DD0002A3BD0002B39D090F85040012C57
:101AD40037D0012480F8504090F851408386222C5E
:101AE400C3868387C38718BF3224836A18BF80F8EC
:101AF40051408263002402684465B3F5005F08BF67
:101B04001368016308BF23F40053104C1049C464E4
:101B1400816401BF1360136843F400531360536876
:101B240043F0E0035360002380F85030106810F055
:101B3400400008D1136843F04003136030BD012016
:101B440030BD022030BD184630BD00BF491F00081B
:101B54001521000870B590F85150EDB2012D0446DE
:101B640013464DD1002949D0002A47D090F850207F
:101B7400012A45D0222280F85120234A82648268B7
:101B840080F85050B2F5004F4FF000054565A16351
:101B94008387C387C5648586C58605D102681368B3
:101BA40023F4804313600BE052B94568B5F5827F96
:101BB40006D180F85020BDE870400A46FFF770BF98
:101BC400A36A2268B3F5005F01BF136823F40053CE
:101BD4001360136804BF43F400531360536843F065
:101BE400600353601068002310F0400084F8503004
:101BF40008D1136843F04003136070BD284670BDDC
:101C0400022070BD184670BDD520000838B50446C2
:101C140090F85100C0B20128134649D1002948D098
:101C2400002A46D094F85020012A41D0122284F888
:101C34005120A268256884F8500000206065B2F540
:101C4400004F08BF2A68A38608BF42F48042E38697
:101C5400E064A064A087E087216308BF2A60A26AC9
:101C6400206CB2F5005F01BF2A6822F400522A609A
:101C74002A6804BF42F400522A600E4A02640E4AE3
:101C8400C2630E4A826405F10C0200F0D6FE002302
:101C940084F8503023681A6852065EBF1A6842F00E
:101CA40040021A605A6842F002025A60002038BDAD
:101CB400022038BD251F00085B2100083D210008D3
:101CC40070B5044690F85100C0B2012808D0656888
:101CD400B5F5827F68D1A568002D65D1222863D12E
:101CE40000295FD0002A5DD0002B5BD094F850000F
:101CF400012859D0012084F8500094F85100216340
:101D04002228A16AA3861CBF322084F85100002037
:101D1400B1F5005F21686065A064E06408BF0868ED
:101D2400E38608BF20F40050A263A387E38701BFC2
:101D34000860086840F40050086094F851002228B4
:101D4400606C0BBF194D1A4D056405640CBF194D29
:101D5400194DC563194D85640C3100F06EFE22687F
:101D6400206C5368216B43F00103536094F85130A5
:101D74000026322B18BF3546E38EC66385640C32C9
:101D840000F05BFE236884F850601A6852065EBF58
:101D94001A6842F040021A605A6842F002025A601D
:101DA400002070BD012070BD022070BD311F0008ED
:101DB4003D1F0008CB210008872200083D210008B0
:101DC40070B590F85150EDB2012D04460E461346FD
:101DD40058D1002954D0002A52D090F85020012A1A
:101DE40050D0222280F85120826880F85050B2F5F9
:101DF400004F4FF000054565A1638387C387856461
:101E0400C5648586C58605D101680A6822F48042C6
:101E14000A600BE052B94568B5F5827F06D180F8B7
:101E24005020BDE870400A46FFF74ABFA26A216805
:101E3400606CB2F5005F01BF0A6822F400520A60C8
:101E44000A6804BF42F400520A600F4A02640F4A4F
:101E5400C2630F4A82640C31324600F0EEFD002367
:101E640084F8503023681A6852065EBF1A6842F03C
:101E740040021A605A6842F001025A60002070BDA4
:101E8400284670BD022070BD311F0008CB21000818
:101E94003D21000890F85030012B1FBF03685A6899
:101EA40022F002025A601FBF5A6822F001025A60EF
:101EB40000231ABF80F8503018460220704790F86B
:101EC4005030012B1FBF03685A6842F002025A6067
:101ED4001FBF5A6842F001025A6000231ABF80F8FB
:101EE400503018460220704710B50446006C08B103
:101EF40000F0DCFD606C08B100F0D8FD23685A687E
:101F040022F002025A605A6822F001025A60012348
:101F140084F85130002010BD7047704770477047F7
:101F240008B5806BFFF7FBFF08BD704708B5806BF1
:101F3400FFF7FBFF08BD704708B5806BFFF7FBFF99
:101F440008BD704713B5C1680268036B044621B924
:101F5400591C01631B78D36003E033F8021BD16082
:101F64000363E38E013B9BB2E386002B48D1A36A53
:101F7400B3F5005F02BF136843F480531360204637
:101F8400022100220A23FFF76BF918B1636D43F0B5
:101F94001003636523685A6822F080025A605A6805
:101FA40052062DD45A6822F020025A60204680211D
:101FB40001220A23FFF754F918B1636D43F01003AB
:101FC4006365A3682BB92368DA6801929B6801935F
:101FD400019B636D73B994F85130322B4FF00103B8
:101FE40084F85130204602D1FFF798FF08E0FFF74C
:101FF40093FF05E0012384F851302046FFF7A1FF49
:1020040002B010BD836AB3F5005F13B504462BD14B
:10201400012100220A23FFF723F918B1636D43F06D
:10202400100363652368DB689BB2ADF806300121B9
:10203400BDF8063020460A460A23FFF711F918B105
:10204400636D43F01003636523689A68D1060BD56A
:10205400626D42F0020262651A6822F400521A604C
:102064001A6842F400521A6023685A6822F0400247
:102074005A605A68120629D45A6822F020025A601B
:102084006268B2F5827F0AD1A268B2F5004F02D02D
:10209400B2F5806F03D11A6822F040021A60636DB2
:1020A40073B994F85130322B4FF0010384F8513056
:1020B400204602D1FFF732FF08E0FFF72EFF05E0CC
:1020C400012384F851302046FFF73BFF02B010BDD6
:1020D400C168836B026821B9591CD26881631A7084
:1020E40003E0D26823F8022B8363C38F013B9BB2C6
:1020F400012BC38709D1836AB3F5005F07D1026856
:10210400136843F480531360704703B97AE7704748
:10211400C168836B026821B9591CD26881631A7043
:1021240003E0D26823F8022B8363C38F013B9BB285
:10213400C38703B966E77047806B08B50023C3867D
:10214400C387012380F85130436D43F01003436586
:10215400FFF7F7FE08BD03681A6812F4807213B51E
:10216400846B1ED1204602210A23FFF779F818B1A7
:10217400636D43F0100363652268536823F0020320
:1021840053602046802101220A23FFF769F818B121
:10219400636D43F0100363650023E386012384F831
:1021A4005130A3682BB92368DA6801929B680193C4
:1021B400019B636D204613B1FFF7C3FE01E0FFF7F7
:1021C400ABFE02B010BD03681B68DA0513B5846B5F
:1021D40052D4A268636832B9B3F5827F03D1204632
:1021E400FFF787F83FE0B3F5827F236809D1B2F5A2
:1021F400004F02D0B2F5806F03D11A6822F040027A
:102204001A605A6822F001025A60A36A0022B3F5E8
:10221400005FE28727D1204601210A23FFF720F837
:1022240018B1636D43F0100363652368DB689BB2E8
:10223400ADF806300121BDF8063020460A460A23CF
:10224400FFF70EF818B1636D43F01003636522685D
:102254009368DB0641BF636D43F0020363656FF06F
:10226400100348BF9360012384F85130636D204606
:102274001BB1FFF766FE02E02046FFF74EFE02B0F8
:1022840010BD03681B6810B5846BDB0520460AD4B7
:10229400FFF72FF8012384F85130636D204613B102
:1022A400FFF74FFE10BDFFF739FE10BD30B50368D0
:1022B4009D685C689968ED0785B0024605D564069B
:1022C40003D54D0601D4836C07E0986859688407E8
:1022D40005D5080603D5D36C104698473EE05968E7
:1022E40089063BD59968CD0641BF516D41F0020185
:1022F40051656FF0100148BF996099688C060AD542
:10230400516D41F00101516599680191196821F0FD
:10231400400119600199996848060CD592F851104A
:10232400122908D0516D41F004015165D968029118
:102334009968029102999968C90541BF516D41F0AC
:10234400080151659B6844BF0393039B536D2BB1F4
:10235400012382F851301046FFF7F3FD05B030BD7C
:1023640090F851007047406D704700BF074AD3682A
:1023740023F4E0631B041B0C43F0BF6343F40033FA
:1023840000F0070043EA0023D360704700ED00E04B
:10239400154BDB68C3F3022370B5C3F107051C1D9D
:1023A400042D28BF0425062C8CBF033B00230124E5
:1023B40004FA03F6AC40013C013E2140994032400E
:1023C400002842EA01024FEA0212AFBF00F1604066
:1023D40000F00F00054BD2B2A5BF00F56140D2B2A8
:1023E4001A5480F8002370BD00ED00E014ED00E005
:1023F4004109012300F01F00024A834042F82130C2
:10240400704700BF00E100E04309012200F01F0013
:1024140020330249824041F82320704700E100E064
:10242400BFF34F8F0449054BCA6802F4E0621343BB
:10243400CB60BFF34F8FFEE700ED00E00400FA0528
:102444000138B0F1807F3FBF064B074A5860F02146
:102454003FBF82F8231000200722986034BF1A601F
:102464000120704710E000E000ED00E0024BD86866
:10247400C0F30220704700BF00ED00E0F0B5002873
:10248400A8BF00F1604001F00701BABF00F00F00DF
:102494000F4C00F56140C1F10706B4BF205C90F811
:1024A40000030C1D042E28BF0426062C8CBF033900
:1024B40000210124000904FA06F58C4020FA01F7F2
:1024C400013D013C3D40044015601C60F0BD00BF6F
:1024D40014ED00E04309012200F01F0040330249DB
:1024E400824041F82320704700E100E04309403373
:1024F400054A00F01F0052F82320012383401342B1
:1025040014BF01200020704700E100E043090122CC
:1025140000F01F0060330249824041F823207047D5
:1025240000E100E043098033054A00F01F0052F83F
:10253400232001238340134214BF0120002070474D
:1025440000E100E0044B1A6804280CBF42F00402C6
:1025540022F004021A60704710E000E0704708B5EA
:10256400FFF7FCFF08BD00BF90F83520D2B210B5CC
:1025740002F0EF04022C4FF0020318D0222A18D0E4
:1025840080F8353003681A6822F001021A605A6A2A
:1025940022F010025A625A6A114359621A6842F0D0
:1025A40001021A60012380F83530002010BD204656
:1025B40010BD184610BD90F83520D2B210B502F007
:1025C400EF04022C4FF0020318D0222A18D080F80E
:1025D400353003681A6822F001021A605C6A4FF60B
:1025E400F0722240114389B259621A6842F0010222
:1025F4001A60012380F83530002010BD204610BD3C
:10260400184610BD30B500282FD00168184A8468D8
:10261400022380F835300B681A4043681C43C368B2
:102624001C4303691C4343691C4383691C43C369FA
:102634001C43036A23431343426A042A01BFC46A46
:10264400056B2C4323430B604B69042A23F00703D7
:1026540043EA020304BF826A13434B61012200234D
:10266400C36480F83520184630BD012030BD00BF5A
:102674003F8010F010B5002800F0B18190F835309B
:10268400022B00F0AC8103681A6822F001021A6080
:1026940000221A605A609A60DA601A6121225A6133
:1026A400AF4A934217D9183293420AD0AD498B42AC
:1026B40009D018318B4214BF4FF080714FF4802140
:1026C40003E0A94901E04FF48071A84C9342E16012
:1026D40050D120215BE0A64A934218D902F55672E4
:1026E40093420AD0A3498B4209D018318B4214BFBC
:1026F4004FF080714FF4802103E09B4901E04FF4D7
:1027040080719A4C9342A16046D1202151E09A4AAB
:10271400934217D9183293420AD098498B4209D070
:1027240018318B4214BF4FF080714FF4802103E0C5
:102734008D4901E04FF48071914C9342E1603DD1A9
:10274400202148E08F4A93420AD08F498B4209D016
:1027540018318B4214BF4FF080714FF4802103E095
:10276400814901E04FF48071854C9342A16037D1D7
:10277400202142E07B498B4207D018318B4214BFA1
:102784004FF000614FF4001101E04FF400619342F7
:10279400E16037D1082142E076498B4207D01831F5
:1027A4008B4214BF4FF000614FF4001101E04FF46D
:1027B40000619342A16038D1082143E06F498B4204
:1027C40007D018318B4214BF4FF000614FF4001151
:1027D40001E04FF400619342E16039D1082144E003
:1027E40069498B4207D018318B4214BF4FF0006106
:1027F4004FF4001101E04FF400619342A1603AD11B
:10280400082145E057498B4207D018318B4214BF49
:102814004FF000714FF4002101E04FF40071534C6C
:102824009342E1603AD1594944E052498B4207D07E
:1028340018318B4214BF4FF000714FF4002101E0B6
:102844004FF40071494C9342A16038D14F4942E0A2
:102854004A498B4207D018318B4214BF4FF00071A4
:102864004FF4002101E04FF40071454C9342E160C4
:1028740036D1464940E044498B4207D018318B4257
:1028840014BF4FF000714FF4002101E04FF40071C8
:102894003B4C9342A16034D13C493EE031498B42E8
:1028A40007D018318B4214BF4FF480014FF48031AC
:1028B40000E040219342E16034D110233FE02D49F0
:1028C4008B4207D018318B4214BF4FF480014FF470
:1028D400803100E040219342A16032D110233DE0D9
:1028E40026498B4207D018318B4214BF4FF4800124
:1028F4004FF4803100E040219342E16048D110233D
:1029040053E021498B4207D018318B4214BF4FF456
:1029140080014FF4803100E040219342A16047D10F
:10292400102352E00F4A934207D0183293420CBF4F
:102934004FF480134FF0806301E04FF480630B4A3F
:1029440034E00C4A934207D0183293420CBF4FF440
:1029540080134FF0806301E04FF48063034A35E055
:10296400586402408864024004008000006402400D
:10297400B860024028640240586002408860024007
:1029840000600240106002402860024001008000A4
:10299400144A934207D0183293420CBF4FF4801369
:1029A4004FF0806301E04FF480630F4AD3600EE080
:1029B4000E4A934207D0183293420CBF4FF480134F
:1029C4004FF0806301E04FF48063074A9360002373
:1029D400C36480F8343080F83530184610BD0120C7
:1029E40010BD00BF886002400060024028600240C1
:1029F40030B590F83440012C4FF002041BD080F81D
:102A040035400468012580F83450256825F0010517
:102A14002560256825F48025256063608368402B44
:102A24000BBFA260A160E160E260236843F0010390
:102A34002360002030BD204630BD30B590F83440CE
:102A4400012C4FF002042FD080F835400468012592
:102A540080F83450256825F001052560256825F4A3
:102A64008025256063608368402B0BBFA260A16052
:102A7400E160E260236843F010032360236843F0BD
:102A840008032360236843F004032360636943F06D
:102A940080036361236843F002032360236843F0E7
:102AA40001032360002030BD204630BD026838B5E4
:102AB400136823F0010313600446FEF70BF905467F
:102AC40023681B6813F0010310D0FEF703F9401BC1
:102AD400B0F57A7FF4D9E36C43F02003E364002378
:102AE40084F83430032384F8353004E0012284F878
:102AF400343084F83520184638BD2DE9F74F046882
:102B0400009106469046B04D24F48064A9B9AC42C5
:102B140029D0AE4B9C4226D0483B9C4225D0603302
:102B24009C4222D0483B9C4222D060339C420CBF42
:102B34004FF400144FF0006424E0AC421BD0A34BCC
:102B44009C4218D0483B9C4217D060339C4214D01E
:102B5400483B9C4214D060339C420CBF4FF4801419
:102B64004FF080640EE020240CE04FF4006409E090
:102B74004FF4001406E0102404E04FF4806401E0F4
:102B84004FF48014FEF7A6F80190914A3368DFF8F9
:102B94003CA2DFF844B291468E498B428C4635D92B
:102BA40058394868044240F0978148688A498B4202
:102BB4000AD018318B4209D018318B420CBF4FF424
:102BC40000214FF0007103E0082101E04FF400718F
:102BD40001EA000E81495B45486801D180490BE058
:102BE40080498B4207D0804FBB420CBF4FF48031E9
:102BF4004FF4800100E0402101EA000777495B457A
:102C0400496801D1794839E076482BE078498B420C
:102C140000F25D8177498B42A1F1580100F2918164
:102C24000868044240F05881AB42086800F0C7814C
:102C340071498B4200F0C58118318B420CBF4FF4AF
:102C440000214FF0007101EA000E6C49AB420868A4
:102C540040F0BA81624901EA00076849AB42096859
:102C6400D0D06548834207D0183083420CBF4FF45C
:102C740080204FF0807001E04FF480700140BEF17D
:102C8400000F04D147BB002900F006817FE0F26CFD
:102C9400634542F00102F26440F2738423F48062DB
:102CA400AA4200F063844948824200F05F844838B5
:102CB400824200F05E846030824200F05A844838D8
:102CC400824200F05A84603082420CBF4FF40022EA
:102CD4004FF000724148C260002F58D0F26C634537
:102CE40042F00202F26412D93B4A93420AD01832EB
:102CF400934209D01832934214BF4FF480024FF428
:102D0400803202E0364A00E0402234482BE0384A60
:102D1400934213D902F5567293420AD01832934261
:102D240009D01832934214BF4FF480024FF480321A
:102D340002E02B4A00E04022284827E02D4A934233
:102D440013D9183293420AD01832934209D0183258
:102D5400934214BF4FF480024FF4803202E0204AC1
:102D640000E040222548C26011E0AB420AD0224A6A
:102D7400934209D01832934214BF4FF480024FF4A7
:102D8400803202E0164A00E040221C48826000299A
:102D940079D0F26C634542F00402F26430D90E4AF1
:102DA40093420AD01832934209D0183293420CBF8E
:102DB4004FF480234FF0807303E00C4B01E04FF499
:102DC4008073064A4AE000BF10600240706002400F
:102DD400106402405864024070640240006402407F
:102DE4000100800088640240A06402400400800066
:102DF400B86002405860024028600240006002400F
:102E0400B24A934214D902F5567293420AD0183248
:102E1400934209D0183293420CBF4FF480234FF0F1
:102E2400807303E0AA4B01E04FF48073A94A29E0C0
:102E3400A94A934214D9183293420AD018329342C1
:102E440009D0183293420CBF4FF480234FF08073A3
:102E540003E09F4B01E04FF48073A04AD36012E07B
:102E6400AB420AD09E4A934209D0183293420CBF17
:102E74004FF480234FF0807303E0954B01E04FF44F
:102E84008073964A9360042386F83530002386F8CD
:102E94003430012000F01DBCB8F1FF3F3FF47CAE9C
:102EA400B8F1000F0BD1F36C43F02003F36403205B
:102EB400002386F8350086F8343000F00ABCFDF7AC
:102EC40009FF019BC01A40457FF65FAEEBE701F5B1
:102ED40052710868044204D0009A002A00F08180EC
:102EE4001BE2934208680AD07E498B4209D018310C
:102EF4008B420CBF4FF400214FF0007103E0082116
:102F040001E04FF4007101EA000E72494B45086874
:102F140001D175490BE073498B4207D0734FBB4213
:102F24000CBF4FF480314FF4800100E0402101EAEE
:102F3400000768494B45086801D165499EE669491F
:102F44001EE048680442C7D1486869498B4224D0CE
:102F540018318B4223D018318B420CBF4FF400211F
:102F64004FF0007101EA000E5C495345486819D1DD
:102F74005D4901EA0007594953454868DDD05D4978
:102F84008B4207D018318B420CBF4FF480214FF095
:102F9400807173E64FF4807170E60821E2E74FF424
:102FA4000071DFE753498B4207D0534FBB420CBF3C
:102FB4004FF480314FF48001DBE74021D9E7082149
:102FC40041E64FF400713EE645498B4207D04B4F32
:102FD400BB420CBF4FF480314FF480013BE64021EB
:102FE40039E61A68540340F1E480634525D923F493
:102FF4008062AA4213D03E498A4210D048398A429C
:103004000FD060318A420CD048398A420CD06031EA
:103014008A420CBF4FF480124FF0806206E0102207
:1030240004E04FF4806201E04FF480122949CA6041
:10303400334A93427CD120229EE0244A9342114693
:1030440020D923F48062AA4213D02948824210D0A6
:10305400483882420FD0603082420CD048388242D5
:103064000CD0603082420CBF4FF480124FF080626B
:1030740006E0102204E04FF4806201E04FF4801275
:10308400144853E0144A93423CD9AB4213D018324B
:10309400934210D0483A93420FD0603293420CD0FE
:1030A400483A93420CD0603293420CBF4FF48012E2
:1030B4004FF0806206E0102204E04FF4806201E0E9
:1030C4004FF480120548C26040E000BFB86002407F
:1030D4000400800000640240586002400060024026
:1030E40028600240286402400100800040640240DD
:1030F4007060024088600240A0600240406002406C
:103104007064024023F48062AA420AD0BA48824220
:1031140009D0183082420CBF4FF480124FF0806205
:1031240003E0102201E04FF48062B44882600DE0B5
:10313400B34A934207D0183293420CBF4FF40012A3
:103144004FF0006218E04FF4006215E08B4215D88E
:10315400AC4A934240F27D821832934200F074826A
:103164001832934200F07282183293420CBF4FF42B
:1031740000124FF00062A149CA6010E0A24A9342D3
:1031840000F05D821832934200F05B821832934261
:103194000CBF4FF400124FF000629C498A601A6819
:1031A400100340F1B3801B68190340F1B28021235E
:1031B400ADE0634525D923F48062AA4213D0944933
:1031C4008A4210D048398A420FD060318A420CD0EA
:1031D40048398A420CD060318A420CBF4FF48012C5
:1031E4004FF0806206E0102204E04FF4806201E0B8
:1031F4004FF480128549CA60864A93425FD12023E6
:103204006AE0854A9342114620D923F48062AA4297
:1032140013D07F48824210D0483882420FD06030A9
:1032240082420CD0483882420CD0603082420CBFBB
:103234004FF480124FF0806206E0102204E04FF455
:10324400806201E04FF48012704836E06D4A934288
:103254001FD9AB4213D01832934210D0483A93424C
:103264000FD0603293420CD0483A93420CD0603273
:1032740093420CBF4FF480124FF0806206E010229C
:1032840004E04FF4806201E04FF480125B48C260B6
:1032940024E023F48062AA420AD05748824209D02B
:1032A400183082420CBF4FF480124FF0806203E06A
:1032B400102201E04FF48062504882600EE0504AD0
:1032C400934207D0183293420CBF4FF400134FF0CF
:1032D400006301E04FF40063CB6017E08B4200F21F
:1032E400CB81484A934240F2E0811832934200F085
:1032F400D7811832934200F0D581183293420CBF23
:103304004FF400134FF000633C4AD360112386F856
:103314003530002086F83400DBE11A68520340F1AE
:10332400A180634520D923F48062AA4213D038498E
:103334008A4210D048398A420FD060318A420CD078
:1033440048398A420CD060318A420CBF4FF4801253
:103354004FF0806206E0102204E04FF4806201E046
:103364004FF48012294944E02B4A934220D923F494
:103374008062AA4213D026498A4210D048398A4230
:103384000FD060318A420CD048398A420CD0603167
:103394008A420CBF4FF480124FF0806206E0102284
:1033A40004E04FF4806201E04FF48012174949E0D1
:1033B400144A934232D9AB4213D01832934210D0FC
:1033C400483A93420FD0603293420CD0483A934229
:1033D4000CD0603293420CBF4FF480124FF08062E5
:1033E40006E0102204E04FF4806201E04FF4801202
:1033F4000249CA6027E000BF286002400060024022
:103404008864024058600240106402400064024034
:103414007060024070640240B860024023F480622D
:10342400AA420AD0AC498A4209D018318A4214BF50
:103434004FF080624FF4801203E0102201E04FF459
:103444008062A6498A60186810F4002003D13123F1
:1034540086F835303DE1186810F4002000F0398119
:1034640041237FE0634520D923F48063AB4213D02A
:103474009B4A934210D0483A93420FD06032934211
:103484000CD0483A93420CD0603293420CBF4FF4B4
:1034940080134FF0806306E0102304E04FF4806350
:1034A40001E04FF480138F4A44E08F4A934220D9BD
:1034B40023F48063AB4213D0483A934210D0483A85
:1034C40093420FD0603293420CD0483A93420CD0CE
:1034D400603293420CBF4FF480134FF0806306E0D8
:1034E400102304E04FF4806301E04FF480137D4A1D
:1034F40036E07E4A93421FD9AB4213D0183293422E
:1035040010D0483A93420FD0603293420CD0483ADC
:1035140093420CD0603293420CBF4FF480134FF0AF
:10352400806306E0102304E04FF4806301E04FF46D
:1035340080136A4AD36014E023F48063AB420AD058
:10354400654A934209D01832934214BF4FF0806306
:103554004FF4801303E0102301E04FF480635F4ACB
:103564009360312386F835300020B2E00822FFF75B
:10357400B1BB4FF40072FFF7ADBB4FF40022FFF76D
:10358400A9BB594A934220D923F48062AA4213D09A
:103594005348824210D0483882420FD06030824271
:1035A4000CD0483882420CD0603082420CBF4FF4B9
:1035B40000224FF0007206E0082204E04FF400728B
:1035C40001E04FF40022474836E0484A93421FD9AD
:1035D400AB4213D01832934210D0483A93420FD0E2
:1035E400603293420CD0483A93420CD060329342FA
:1035F4000CBF4FF400224FF0007206E0082204E0F2
:103604004FF4007201E04FF400223448FFF763BB2B
:1036140023F48062AA420AD02F48824209D018308B
:10362400824214BF4FF000724FF4002203E00822DC
:1036340001E04FF4007229488260FFF74DBB20225D
:10364400ABE54FF40062A8E5202294E54FF4006254
:1036540091E5AB420AD0204A934209D018329342F2
:103664000CBF4FF400124FF0006203E0202201E08F
:103674004FF40062194991E51D4A93420AD0183269
:10368400934209D0183293420CBF4FF400134FF009
:10369400006303E0202301E04FF40063114A16E0C5
:1036A400202331E64FF400632EE6AB420AD00A4AE7
:1036B400934209D0183293420CBF4FF400134FF0D9
:1036C400006303E0202301E04FF40063034A9360A6
:1036D4001CE603B0BDE8F08F2860024000600240A1
:1036E4007060024000640240B860024058600240CA
:1036F4001064024070B50368A94DAB42044616D964
:10370400A84A5168703293420AD01832934209D0C1
:10371400183293420CBF4FF400224FF0007203E0C2
:10372400082201E04FF400720A424CD1BDE09E4AE7
:10373400934217D9D2F8481302F5567293420AD02D
:103744001832934209D0183293420CBF4FF400222E
:103754004FF0007203E0082201E04FF400720A42C5
:1037640031D1BBE0914A9342A2F1580215D9516874
:10377400703293420AD01832934209D018329342DD
:103784000CBF4FF400224FF0007203E0082201E066
:103794004FF400720A4216D1B9E01168844A934288
:1037A4000AD01832934209D0183293420CBF4FF416
:1037B40000224FF0007203E0082201E04FF400728F
:1037C4000A4200F0BA801A6852076BD51A68AB42F5
:1037D40022F004021A6013D9764A93420AD01832AE
:1037E400934209D01832934214BF4FF000734FF440
:1037F400002303E0082301E04FF40073694A2DE03D
:10380400694A934214D902F5567293420AD0183287
:10381400934209D01832934214BF4FF000734FF40F
:10382400002303E0082301E04FF400735D4A2AE01B
:103834005E4A934214D9183293420AD01832934202
:1038440009D01832934214BF4FF000734FF4002391
:1038540003E0082301E04FF40073574AD36013E0F8
:10386400534A93420AD01832934209D018329342F1
:1038740014BF4FF000734FF4002303E0082301E06A
:103884004FF400734C4A9360E36C43F00103E36428
:10389400042384F83530002384F83430A36C0BB14E
:1038A400204698472368AB4215D93E4A5168703286
:1038B40093420AD01832934209D0183293420CBF73
:1038C4004FF480324FF4800202E03C4A00E0402290
:1038D4000A4248D1FEE3344A934215D9314A116869
:1038E400103293420AD01832934209D018329342CC
:1038F4000CBF4FF480324FF4800202E02F4A00E004
:1039040040220A422FD1E3E3284A934215D92A4A96
:103914005168703293420AD01832934209D0183257
:1039240093420CBF4FF480324FF4800202E0234AEA
:1039340000E040220A4216D1C8E31F4A116810323F
:1039440093420AD01832934209D0183293420CBFE2
:103954004FF480324FF4800202E0184A00E0402223
:103964000A4200F0CA805A69160678D55A69AB42F1
:1039740022F080025A6123D90E4A93420AD01832A7
:10398400934209D0183293420CBF4FF480334FF462
:10399400800302E0094B00E04023024A3CE000BF00
:1039A4005864024000640240B8600240586002401B
:1039B4001060024070640240006002400100800018
:1039C400AB4A934213D902F5567293420AD0183285
:1039D400934209D0183293420CBF4FF480334FF412
:1039E400800302E0A34B00E04023A34A28E0A34A5B
:1039F400934213D9183293420AD01832934209D011
:103A0400183293420CBF4FF480334FF4800302E02A
:103A1400984B00E040239A4AD36012E0994A9342BB
:103A24000AD01832934209D0183293420CBF4FF493
:103A340080334FF4800302E08E4B00E04023904A31
:103A44009360E36C43F00203E364042384F83530A9
:103A5400002384F83430A36C0BB1204698472368C4
:103A6400AB4216D9844A5168703293420AD0183254
:103A7400934209D0183293420CBF4FF480224FF086
:103A8400807203E0804A01E04FF480720A424CD114
:103A940026E3774A934216D9774A11681032934243
:103AA4000AD01832934209D0183293420CBF4FF413
:103AB40080224FF0807203E0734A01E04FF4807279
:103AC4000A4232D10AE36D4A934217D96C4A5168CB
:103AD400703293420AD01832934209D0183293427A
:103AE4000CBF4FF480224FF0807203E0664A01E07D
:103AF4004FF480720A4218D1EEE22368604A1168DA
:103B0400103293420AD01832934209D018329342A9
:103B14000CBF4FF480224FF0807203E05A4A01E058
:103B24004FF480720A4200F0CD801A6890076BD57A
:103B34001A68AB4222F002021A6013D9534A934224
:103B44000AD01832934209D0183293420CBF4FF472
:103B540080234FF0807303E04B4B01E04FF48073FC
:103B6400454A2DE0424A934214D902F556729342D3
:103B74000AD01832934209D0183293420CBF4FF442
:103B840080234FF0807303E03F4B01E04FF48073D8
:103B9400394A2AE0394A934214D9183293420AD056
:103BA4001832934209D0183293420CBF4FF4802349
:103BB4004FF0807303E0344B01E04FF48073304ADC
:103BC400D36013E02F4A93420AD01832934209D0AB
:103BD400183293420CBF4FF480234FF0807303E0FC
:103BE400294B01E04FF48073254A9360E36C43F062
:103BF4000403E364042384F83530002384F8343068
:103C0400A36C0BB1204698472368AB4216D91A4AD5
:103C14005168703293420AD01832934209D0183254
:103C240093420CBF4FF480124FF0806203E01022E5
:103C340001E04FF480620A425CD157E20C4A93429D
:103C440026D90D4A1168103293420AD01832934291
:103C540009D0183293420CBF4FF480124FF08062A7
:103C640003E0102201E04FF480620A4242D13BE2B9
:103C7400B8600240010080000064024058600240C5
:103C84000060024010600240040080007064024042
:103C9400AB4A934217D9AB4A5168703293420AD067
:103CA4001832934209D0183293420CBF4FF4801259
:103CB4004FF0806203E0102201E04FF480620A4278
:103CC40018D10FE223689F4A1168103293420AD038
:103CD4001832934209D0183293420CBF4FF4801229
:103CE4004FF0806203E0102201E04FF480620A4248
:103CF40000F09D801A68110740F188801A68520309
:103D040062D5AB4213D9904A93420AD018329342F7
:103D140009D0183293420CBF4FF480134FF08063E4
:103D240003E0102301E04FF48063884A2DE0884AC1
:103D3400934214D902F5567293420AD01832934230
:103D440009D0183293420CBF4FF480134FF08063B4
:103D540003E0102301E04FF480637C4A2AE0784AB0
:103D6400934214D9183293420AD01832934209D09C
:103D7400183293420CBF4FF480134FF0806303E07A
:103D8400102301E04FF480636E4AD36013E0714A5C
:103D940093420AD01832934209D0183293420CBF8E
:103DA4004FF480134FF0806303E0102301E04FF4DD
:103DB4008063644A936023681A6816031FD51B68DE
:103DC40018031FD541231BE01A68D10503D41A68D0
:103DD40022F008021A60AB4240F2EB805A4A934246
:103DE40000F0E2801832934200F0E08018329342EF
:103DF4000CBF4FF480134FF08063544AD3603123D7
:103E040084F83530236C0BB1204698472368AB42C5
:103E140001D94E4A08E04E4A934201D94B4A08E080
:103E2400474A934204D9474A5168703203E02368F1
:103E3400444A1168103293420AD01832934209D08E
:103E4400183293420CBF4FF400124FF0006203E0AB
:103E5400202201E04FF400620A4214BF0122002232
:103E6400002A00F045811A68D20640F141811A689F
:103E7400560371D5AB4213D9334A93420AD0183250
:103E8400934209D0183293420CBF4FF400134FF001
:103E9400006303E0202301E04FF400632B4A2DE08C
:103EA4002B4A934214D902F5567293420AD018321F
:103EB400934209D0183293420CBF4FF400134FF0D1
:103EC400006303E0202301E04FF400631F4A2AE06B
:103ED4001B4A934214D9183293420AD0183293429F
:103EE40009D0183293420CBF4FF400134FF0006313
:103EF40003E0202301E04FF40063124AD36013E08F
:103F0400144A93420AD01832934209D01832934289
:103F14000CBF4FF400134FF0006303E0202301E0D3
:103F24004FF40063074A936023681A68100301D4AE
:103F3400636C32E01B68190340F1DA802CE000BFA7
:103F44005860024000600240706402400064024015
:103F5400B8600240106002401A68D20503D41A689F
:103F640022F010021A60AB426CD9624A934264D0C8
:103F74001832934263D0183293420CBF4FF40013AB
:103F84004FF000635C4AD360E36CE364112384F86C
:103F94003530002384F83430E36B002B00F0A88024
:103FA4002046BDE870401847102326E74FF480638D
:103FB40023E7524A934214D902F5567293420AD027
:103FC4001832934209D0183293420CBF4FF4801335
:103FD4004FF0806303E0102301E04FF48063464A0E
:103FE40029E0474A934213D9183293420AD018322F
:103FF400934209D0183293420CBF4FF480134FF010
:10400400806303E0102301E04FF480633D4AF5E64A
:104014003D4A93420AD01832934209D0183293424F
:104024000CBF4FF480134FF0806303E0102301E0D2
:104034004FF48063334A9360E1E62023A2E74FF410
:1040440000639FE72D4A934214D902F556729342B6
:104054000AD01832934209D0183293420CBF4FF45D
:1040640000134FF0006303E0202301E04FF40063EA
:10407400214A29E0224A934213D9183293420AD0A2
:104084001832934209D0183293420CBF4FF40013F4
:104094004FF0006303E0202301E04FF40063194A6A
:1040A40071E7194A93420AD01832934209D0183260
:1040B40093420CBF4FF400134FF0006303E020233E
:1040C40001E04FF400630F4A93605DE72368FDE469
:1040D4002368E1E42368C5E42368DCE52368B0E5EC
:1040E400236894E523689EE6236897E6236890E6B0
:1040F40070BD00BF7064024000640240B8600240BA
:1041040058600240006002401060024090F83500A0
:104114007047C06C704700BF044B1A6A42F080526B
:104124001A621A6A22F080521A62704700380240FA
:104134004FF4807393FAA3F3B3FA83F3DBB29B00D7
:1041440003F1844303F5602301221A6070474FF49E
:10415400807393FAA3F3B3FA83F3DBB29B0003F106
:10416400844303F5602300221A60704719490B68E1
:1041740023F0E002036813430B60174B5A6822F4E0
:1041840080325A601A6822F480321A609A6822F4E3
:1041940080329A60DA6822F48032DA604268D103AD
:1041A40042BF196841F480311960900342BF5968D5
:1041B40041F480315960D10741BF07498B6843F40A
:1041C40080338B60930741BF034AD36843F4803341
:1041D400D360704700700040003C0140102393FA04
:1041E400A3F3B3FA83F3DBB29B0003F1844303F537
:1041F400602301221A607047102393FAA3F3B3FAE1
:1042040083F3DBB29B0003F1844303F560230022B4
:104214001A607047024A536818435060704700BFE1
:1042240000700040024A536823EA0000506070475F
:1042340000700040064A1369012923F00403136146
:1042440001D130BF704740BF20BF20BF704700BFBF
:1042540000ED00E00B4A136823F0030318430A4BF4
:1042640010601A69012942F004021A6101D130BFB9
:1042740002E040BF20BF20BF1A6922F004021A6185
:10428400704700BF0070004000ED00E0054A13686D
:1042940043F002031360044A136943F004031361F7
:1042A40030BF70470070004000ED00E0704710B56B
:1042B400044C6369DB0304D5FFF7F8FF4FF4803344
:1042C400636110BD003C0140024A136943F00203DC
:1042D4001361704700ED00E0024A136923F0020302
:1042E4001361704700ED00E0024A136943F01003C4
:1042F4001361704700ED00E0024A136923F01003D4
:104304001361704700ED00E02DE9F8430E460446C2
:104314001746FCF7DFFCC6F3074980462568B9F168
:10432400010F0CBF6B69AB69DB439BB2334214BF13
:10433400012300232BB36B695A050FD52B6843F473
:1043440000732B606FF480636B610423A36300220A
:10435400012384F8353084F8342012E07B1CDDD04E
:1043640047B9012384F83530002384F8343003201E
:10437400BDE8F883FCF7AEFCC8EB0000B842CDD929
:10438400EFE71846BDE8F8832DE9F0410E461D46D7
:1043940004469046FCF79EFC330C0746B8F1000F28
:1043A40034D15FFA83F82368B8F1010F0CBF5B695D
:1043B4009B69DB439BB2334214BF01230023C3B187
:1043C4006A1CF0D0CDB1FCF785FCC01BA842EAD929
:1043D40013E06B1C10D12368B8F1010F0CBF5B69AB
:1043E4009B69DB439BB233420CBF01230023002BA8
:1043F400EFD10020BDE8F0815DB9012384F83530A8
:10440400002384F834300320BDE8F0815FFA83F898
:10441400E1E7FCF75FFCC01BA842DCD9EDE770B50F
:1044240016460268136843F4807313600D46002235
:104434004FF0011133460446FFF7A6FF18BB23696A
:10444400B3F5804F236802D105F0FE0512E005F4B0
:104454004071C91141F0F001196120460B493246FF
:10446400FFF752FF20B1A36B042B0CD1012070BDC8
:104474002368EDB21D61204605493246FFF744FF2B
:104484000028F0D100E0032070BD00BF0800010047
:10449400020001000368F7B516461A6842F4806208
:1044A4001A601A6842F480721A600D4600224FF0B6
:1044B400011133460446FFF767FFD0B92369B3F50A
:1044C400804F236804D145F00105EDB21D6133E04E
:1044D40005F44071CF0947F0F0021A6120461B49E8
:1044E4003246FFF711FF30B1A36B042B01D1012039
:1044F40029E0032027E023681549EDB232461D6107
:104504002046FFF701FF02460028EDD123685969D0
:1045140001919969019101991D6845F480751D60A7
:1045240020464FF001113346FFF72EFF0028E0D15B
:10453400236847F0F1011961204605493246FFF727
:10454400E3FE0028D0D103B0F0BD00BF0800010095
:1045540002000100F7B51F46036816461A6842F4C4
:1045640080721A600D4600224FF00111089B044628
:10457400FFF70AFF08B103252FE02368089A1849BA
:1045840005F0FE051D612046FFF7BEFE024628B178
:10459400A36B042B0CBF012503251EE02368596976
:1045A40001919B690193019B0E49089B2046FFF7EB
:1045B400EBFE05460028DED1012F23680BD0320A1A
:1045C4001A6120462A460749089BFFF7DDFE054687
:1045D4000028D0D12368F6B21E61284603B0F0BD8E
:1045E40002000100800001002DE9F3411546026834
:1045F400176847F480671760176847F480770E469A
:10460400984617604FF001110022089B0446FFF7FB
:10461400BBFEE8B923682949F6B206F0FE021A6126
:104624002046089AFFF770FE024620B1A36B042BC4
:104634000ED101203FE02368596901919B690193E0
:10464400019B1F49089B2046FFF79EFE024608B1C6
:10465400032030E0B8F1010F236809D0290A196159
:1046640020461749089BFFF78FFE0028F0D12368E6
:104674001349EDB21D6100222046089BFFF784FE1A
:1046840002460028E4D121680B6843F480730B6070
:1046940020464FF00111089BFFF776FE0028D7D182
:1046A40023680649089A46F001061E612046FFF772
:1046B4002BFE0028BAD102B0BDE8F081020001004F
:1046C40080000100704770B50446002860D090F85F
:1046D400353003F0FF021BB980F83420FFF7F2FFF6
:1046E40022682C4D022384F83530136823F001032B
:1046F400136002F07DF8636822682749B0FBF1F18A
:10470400AB422E4688BF4FF49675516082BF694311
:104714004FF47A75B1FBF5F1B34201F10101116275
:1047240008D85B00B0FBF3F3C3F30B01032998BF74
:10473400042316E0A16849B903EB4303B0FBF3F388
:10474400C3F30B0161B143F400430AE019214B4365
:10475400B0FBF3F3C3F30B0111B143F4404300E0A6
:104764000123D361216AE3690B431360E168236980
:104774000B439360A16963690B43D360136843F0EF
:104784000103136000200123A06384F8353070BD59
:10479400012070BDA086010040420F00704710B593
:1047A400044688B10268022380F83530136823F088
:1047B40001031360FFF7F2FF0023A36384F834308E
:1047C40084F83530184610BD012010BD2DE9F341A1
:1047D40090F83540E4B2012C054617461E465ED1DA
:1047E400002A5AD0002B58D003689B6913F00208A2
:1047F40055D190F83430012B51D0122380F8353044
:1048040080F83440C0F83880089AFFF708FE28B1D1
:10481400AB6B85F83480042B0DD13EE02B685A69CC
:1048240001929B690193019B1F49089B2846002222
:10483400FFF7AAFD08B1032032E02A683B78136130
:104844005169731E49079BB202D401371E460EE01C
:1048540043B928461449089B0022FFF795FD002818
:10486400E9D107E07B781361023EB6B20237002E2D
:10487400DAD1EEE72A680D49136843F40073136034
:1048840028460122089BFFF77FFD0028D3D101238E
:1048940085F8353085F8340002E0204600E0022037
:1048A40002B0BDE8F08100BF8000010002001000EA
:1048B4002DE9FF4190F83550EDB2012D044617461D
:1048C4001E4640F0A980002A00F0A480002B00F0CE
:1048D400A18003689B6913F0020840F09D8090F862
:1048E4003430012B00F09880222380F8353080F892
:1048F4003450C0F838800A9AFFF7CCFD28B1A36B76
:1049040084F83480042B33D184E02168012E0B68B1
:104914000CD123F480630B604B6901938B69019381
:10492400019B0B6843F400730B6016E0022E0CD15C
:1049340023F480630B600B6843F400630B604B69E2
:1049440002938B690293029B07E043F480630B603C
:104954004B6903938B690393039B032E204640D832
:10496400012E0BD138490A9B0022FFF70DFD08B137
:10497400032065E023681B693B704FE0022E334936
:104984000A9B4FF000020ED1FFF7FEFC0028EFD186
:1049940023681A6842F400721A601B693B7023682A
:1049A4001B697B703AE0FFF7EFFC02460028DFD179
:1049B4002368196821F4806119601B693B702046E3
:1049C40022490A9BFFF7E0FC0028D1D123681A682A
:1049D40042F400721A601B697B7023681B69BB7008
:1049E4001CE019490A9B0022FFF7CEFC0028BFD126
:1049F40023681B693B70226853695B0759BF7B1CA2
:104A040006F1FF36BB1C126944BF7A70023EB6B28F
:104A14001F46A2E7284613E0022011E022680C4951
:104A2400136823F400631360204601220A9BFFF7F6
:104A3400ABFC00289CD1012384F8353084F8340081
:104A440004B0BDE8F08100BF400001000400010093
:104A5400020010002DE9F34190F83550EDB2012D1C
:104A640004460F461646984673D100296FD0002A93
:104A74006DD001688A6912F002026AD190F834E0BC
:104A8400BEF1010F65D080F83450122580F83550FE
:104A940082630D6845F480650D603049FFF774FC4E
:104AA400024608B1032055E02368596900919B69C7
:104AB4000093009B2369B3F5404F0CD1204627494E
:104AC4004346FFF761FC0028ECD123685A69019240
:104AD4009B690193019B2249204600224346FFF72C
:104AE40053FC0028DED122683B7813615169731EA0
:104AF40049079BB202D401371E460FE04BB920464A
:104B04004FF4823100224346FFF73EFC0028C9D10E
:104B140007E07B781361023EB6B20237002EDAD189
:104B2400EDE723680F496FF480625A611A6822F432
:104B340080621A60204601224346FFF725FC0028C4
:104B4400B0D1012384F8353084F8340002E02846DB
:104B540000E0022002B0BDE8F08100BF02000100C5
:104B640080000100020010002DE9F34190F8354067
:104B7400E4B2012C05460F461646984665D1002935
:104B840061D0002A5FD001688A6912F002025CD108
:104B940090F834E0BEF1010F57D080F8344022245D
:104BA40080F8354082630C6844F480640C602949C1
:104BB400FFF7EAFB08B1032048E02B685A6900922A
:104BC4009B690093009B2449284600224346FFF733
:104BD400DBFB0028EFD12B681B693B702A68516905
:104BE400731E49079BB202D401371E460EE043B937
:104BF40028461A4900224346FFF7C6FB0028DAD1AB
:104C040007E013697B70023EB6B20237002EDAD198
:104C1400EEE72A68124953690193136843F00103CC
:104C24001360019B136823F48063136028460122F8
:104C34004346FFF7A9FB0028BDD1012385F8353091
:104C440085F8340002E0204600E0022002B0BDE80E
:104C5400F08100BF020001004000010010000100CB
:104C640002001000F7B590F83550EDB2012D04465E
:104C74002DD152B34BB30668B66916F0020626D19D
:104C840090F83470012F22D0122780F835704262D8
:104C9400866380F83450038543852322FFF7BFFBE6
:104CA40030B1A36B84F83460042B0ED003200FE0E2
:104CB40023685A6901929A690192019A5A6884F8A0
:104CC400340042F4E0625A6002E0284600E0022028
:104CD40003B0F0BDF0B590F83550EDB2012D85B0BC
:104CE400044657D1002A53D0002B51D00668B66928
:104CF40016F002064ED190F83470012F4AD02227C4
:104D040080F835704262866380F8345003854385A9
:104D14002322FFF7BFFB30B1A36B84F83460042B6C
:104D240036D0032037E0638D9BB2012B23680DD16D
:104D34001A6822F480621A605A6901929A6901928F
:104D4400019A1A6842F400721A6019E0628D92B2F4
:104D5400022A1A680CD122F480621A601A6842F49A
:104D640000621A605A6902929A690292029A07E0F2
:104D740042F480621A605A6903929A690392039A10
:104D8400002284F834205A6842F4E0625A6002E057
:104D9400284600E0022005B0F0BD90F8353030B56B
:104DA4000446D8B201281DD1E9B1E2B12068836973
:104DB40013F0020316D194F83450012D12D01225A9
:104DC40084F83550A363628522850268616242F4E7
:104DD40080620260426884F8343042F4E0624260E7
:104DE400184630BD022030BD90F8353030B5044649
:104DF400D8B201281DD1E9B1E2B12068836913F06A
:104E0400020316D194F83450012D12D0222584F8CF
:104E14003550A363628522850268616242F4806230
:104E24000260426884F8343042F4E062426018461A
:104E340030BD022030BD2DE9F3410446884694F884
:104E44003550EDB2012D3BD1002A37D0002B35D09F
:104E54002768BE6916F0020632D194F8341001298D
:104E64002ED0E06A6262122184F835101649A663D6
:104E740084F8345023856385C163144981641146E1
:104E840007F11002FDF7D9FD204641462322FFF722
:104E9400C6FA30B1A36B84F83460042B0ED003201F
:104EA4000FE023685A6842F400625A605A6901921A
:104EB4009B690193019B84F8340002E0284600E0DA
:104EC400022002B0BDE8F081F9590008D359000866
:104ED4002DE9F3410446884694F83550EDB2012D8E
:104EE4001F4648D1002A44D0002B42D0D4F800E019
:104EF400DEF8186016F002063DD194F8341001294A
:104F040039D0206B6262222184F835101C49A663D3
:104F140084F8345023856385C1631A4981640EF192
:104F24001001FDF78AFD204641462322FFF7B2FA1D
:104F340030B1A36B84F83460042B1AD003201BE037
:104F44002368012F0BBF1A685A6822F4806242F466
:104F540080520CBF1A605A605A6842F400625A6068
:104F64005A6901929B690193019B002384F83430B0
:104F740002E0284600E0022002B0BDE8F08100BF54
:104F8400615A0008D3590008F0B5044685B094F876
:104F94003550EDB2012D134653D1002952D0002AC9
:104FA40050D02268966916F002064AD194F83470FB
:104FB400012F46D084F83450E06A6162122584F8E7
:104FC4003550224DA66323856385C563204D8564D2
:104FD4001032FDF732FD23681E495A6842F400621C
:104FE4005A601A6842F480621A602046324642F2DD
:104FF4001073FFF7C9F9054608B1032522E02369B8
:10500400B3F5804F23685A6904D101929B690193D7
:10501400019B12E002929B690293029B0D49204678
:105024002A4642F21073FFF7AFF90028E5D123684E
:105034005A6903929B690393039B002384F83430D9
:1050440000E00225284605B0F0BD00BFBD5A0008A7
:10505400D359000802000100F7B590F83540E4B2D6
:10506400012C05460F4613463AD1002936D0002AB2
:1050740034D001688E6916F0020631D190F83420DC
:10508400012A2DD0222280F835200385866380F8FA
:10509400344043854762006B144AC263144A8264F5
:1050A40010313A46FDF7C9FC2B6812495A6842F49C
:1050B40000625A601A6842F480621A6028463246D6
:1050C40042F21073FFF760F960B92B685A690192D4
:1050D4009B690193019B85F8340004E0204602E0BB
:1050E400022000E0032003B0F0BD00BF295B0008EC
:1050F400D3590008020001002DE9F74390F8354028
:10510400DDF82880BDF82C60DDF83090E4B2012C85
:1051140005465ED1B8F1000F59D0002E57D007686C
:10512400BF6917F0020754D190F834E0BEF1010FC3
:105134004FD04FF0320E80F835E080F8344087636A
:10514400CDF80090FFF706FA90B1AB6B85F8347098
:10515400042B15D13BE02A6898F80030136151699B
:10516400731E49079BB20DD408F101081E4656B1BF
:1051740028461A4900224B46FFF706F90028EAD0D0
:10518400032027E043B92846144900224B46FFF781
:10519400FBF80028F4D107E098F801301361023ECF
:1051A400B6B208F10208E2E72A680D49136843F42D
:1051B40000731360284601224B46FFF7E5F80028E8
:1051C400DED1012385F8353085F8340002E020462D
:1051D40000E0022003B0BDE8F08300BF80000100BE
:1051E400020010002DE9F04390F8355087B0EDB27D
:1051F400012D0446DDF83880BDF83C60DDF84090B0
:1052040040F0B480B8F1000F00F0AE80002E00F042
:10521400AB800768BF6917F0020740F0A78090F8D9
:1052240034E0BEF1010F00F0A1804FF0420E80F88F
:1052340035E080F834508763CDF80090FFF7D4F957
:1052440028B1A36B84F83470042B31D18CE0012E87
:1052540022680DD1136823F48063136053690393A8
:1052640093690393039B136843F40073136014E07E
:10527400022E0DD1136823F480631360136843F482
:10528400006313605369049393690493049B04E0DB
:105294005369059393690593059B032E204646D8CD
:1052A400012E0CD13D4900224B46FFF76DF808B1A1
:1052B40003206FE023681B6988F8003058E0022E51
:1052C40037494FF000024B4610D1FFF75DF8002834
:1052D400EED123681A6842F400721A601B6988F8D8
:1052E400003023681B6988F8013041E0FFF74CF86F
:1052F40002460028DCD12368196821F48061196012
:105304001B6988F80030204625494B46FFF73CF8D6
:105314000028CDD123681A6842F400721A601B6910
:1053240088F8013023681B6988F8023020E01B49A3
:1053340000224B46FFF728F80028B9D123681B69DF
:1053440088F80030226853695B0759BF08F10103EC
:1053540006F1FF3608F10203126944BF88F8012000
:10536400023EB6B2984698E7284613E0022011E0C0
:1053740022680C49136823F4006313602046012259
:105384004B46FFF701F8002892D1012384F8353009
:1053940084F8340007B0BDE8F08300BF400001008A
:1053A4000400010002001000F7B590F83550DDF854
:1053B40020E0BDF82470EDB2012D04462ED1BEF1DB
:1053C400000F29D047B30668B66916F0020625D146
:1053D40090F834C0BCF1010F20D04FF0320C80F8AB
:1053E40035C0078586634785232780F83450C0F885
:1053F40024E00097FFF7AEF830B1A36B84F8346073
:10540400042B09D003200AE0226884F8340053688E
:1054140043F4E063536002E0284600E0022003B056
:10542400F0BDF0B590F8355087B0EDB2012D0446CB
:10543400DDF830E0BDF834705CD1BEF1000F57D018
:10544400002F55D00668B66916F0020652D190F8BE
:1054540034C0BCF1010F4DD04FF0420C80F835C080
:10546400078586634785232780F83450C0F824E0F5
:105474000097FFF7B9F830B1A36B84F83460042BBC
:1054840036D0032037E0638D9BB2012B23680DD106
:105494001A6822F480621A605A6903929A69039224
:1054A400039A1A6842F400721A6019E0628D92B28B
:1054B400022A1A680CD122F480621A601A6842F433
:1054C40000621A605A6904929A690492049A07E085
:1054D40042F480621A605A6905929A690592059AA3
:1054E400002284F834205A6842F4E0625A6002E0F0
:1054F400284600E0022007B0F0BD2DE9F34790F8FC
:105504003550BDF82C70EDB2012D8A460446914603
:1055140098460A9938D1002934D0002F32D0026835
:10552400966916F002062FD190F83430012B2BD057
:10553400322380F835304162866380F83450078521
:105544004785C06A124BC363124B836410323B46D7
:10555400FDF773FA23230093204651464A464346F7
:10556400FEF7F8FF30B1A36B84F83460042B09D044
:1055740003200AE02268536843F40063536084F80C
:10558400340002E0284600E0022002B0BDE8F087C3
:10559400A15B0008D35900082DE9FF4790F8355066
:1055A400BDF83470EDB2012D914604468A46984602
:1055B4000C9A49D1002A45D0002F43D001688E6946
:1055C40016F0020640D190F83430012B3CD042232F
:1055D40080F835304262866380F834500785478509
:1055E400006B1B4BC3631B4B836410313B46FDF7BD
:1055F40024FA23230093204651464A464346FEF7A5
:10560400F3FF30B1A36B84F83460042B1AD0032069
:105614001BE02368012F0BBF1A685A6822F48062CA
:1056240042F480520CBF1A605A605A6842F4006215
:105634005A605A6903929B690393039B002384F87D
:10564400343002E0284600E0022004B0BDE8F087D0
:10565400095C0008D35900082DE9F74F1F4690F85C
:105664003530DBB2012B044691467CD10268956942
:1056740015F0020577D190F83420012A73D080F810
:105684003430022380F8353001F0FE088563226847
:10569400136843F48073136020464FF00111002215
:1056A4003B46FEF771FE08B103205DE02368C3F8B2
:1056B4001080FBF70FFB23685A695B6994F8356027
:1056C4008246C2F34002C3F38023F6B24FF0030BC9
:1056D400BAB9B3B9032E14D017B984F835B005E0BC
:1056E400FBF7F8FACAEB0000B842F6D823685A6907
:1056F4005B6994F83560C2F34002C3F38023F6B2C9
:10570400E6E72068012684F83560436913F0020F48
:10571400036843F40073036011D043690193836900
:105724000193019B1249204632463B46FEF72CFE6C
:105734000028B9D184F8356084F8340014E06FF49B
:10574400806343610A49204632463B46FEF71CFE0D
:105754000028A9D101354D4599D384F8340084F843
:105764003560304600E0022003B0BDE8F08F00BF92
:1057740002001000704770477047704770477047C9
:1057840003689A69D20773B5044640F1BA809A69EE
:10579400560745D55D6958685A6959682D06C2F39C
:1057A400800212D5400510D592B9626A511C61621B
:1057B40012781A61628D013A92B26285628D92B258
:1057C400002A40F0FF805A683EE0002A00F0FA8088
:1057D4008A0540F1F780628D92B2002A40F0D680AB
:1057E4005A68794922F4E0625A601A6842F40072F5
:1057F4001A60204601222323FEF7C6FD002840F04C
:10580400E18094F83530322B4FF0010384F83530C1
:10581400204602D1FFF7B2FFD4E0FFF7ABFFD1E09F
:105824005E695D685A6959687606C2F380021CD5C0
:105834006D051AD5E2B9428D92B2032A00F2B980FD
:10584400023A012A5A6803D822F480625A60B9E005
:1058540022F4E0625A60426A1B69511C416213706F
:10586400438D013B9BB2438530E0002A00F0AA80BF
:105874008A0540F1A780628D92B2032A626A04D13C
:10588400196821F48061196094E0618D89B202295C
:1058940040F09080196841F4007119601B69511C33
:1058A40061621370638D013B9BB26385636A5A1C0A
:1058B4006262226812691A70638D2268013B9BB28E
:1058C4006385536823F44073536020463E490122A4
:1058D4002323FEF759FD002874D12268136823F4AA
:1058E4000063136094F83530422B4FF0010384F8C1
:1058F4003530204602D1FFF742FF63E0FFF73BFF5C
:1059040060E05E695A685D699969B607C2F340222E
:1059140005F0100501F0040106D522B35A6900927E
:105924009B690093009B4DE0EDB1E2B15A682649B2
:1059340022F4E0625A605A6901921A6842F0010244
:105944001A60019A1A6822F480621A6001222323E1
:10595400FEF71AFD002835D1012384F8353020469E
:10596400FFF70BFF2EE05D6958685A69C2F38002A5
:1059740091B12D06596803D5400501D50AB902E055
:1059840002B38E051ED5628D92B2DAB1626A511CE1
:10599400616212781A6111E06D06596803D54005F9
:1059A40001D50AB902E06AB18A050BD5628D92B2BB
:1059B40042B1626A1B69511C61621370638D013BC1
:1059C4009BB2638502B070BD020010007047806B0B
:1059D400026808B5136823F48063136000234385C9
:1059E400012380F83530836B43F010038363FFF7A2
:1059F400EDFF08BD10B5846B164920460022232311
:105A0400FEF7C2FC18B1A36B43F02003A363236821
:105A140011491A6842F400721A605A6822F400624A
:105A24005A6000236385204601222323FEF7ACFC41
:105A340018B1A36B43F02003A363012384F835302A
:105A4400A36B204613B1FFF7C1FF10BDFFF792FE11
:105A540010BD00BF040001000200100010B5846BEB
:105A6400144923681A6842F400721A605A6822F4CE
:105A740080525A601A6822F480621A605A6822F4CA
:105A840000625A6000236385204601222323FEF727
:105A94007BFC18B1A36B43F02003A363012384F8B8
:105AA4003530A36B204613B1FFF790FF10BDFFF70D
:105AB40062FE10BD0200100010B5846B4FF48231F9
:105AC400204600222323FEF75FFC18B1A36B43F0AA
